:020000021000EC
:10C0000000000120514002009140020093400200D4
:10C010009540020097400200994002000000000095
:10C02000000000000000000000000000314C020091
:10C030009D40020000000000514C0200A14002009F
:10C04000A3400200A340020089640200A340020052
:10C05000E5DA0100A34002008D410200A340020086
:10C06000A3400200A3400200A3400200A34002003C
:10C07000A3400200A3400200A3400200A34002002C
:10C08000A3400200394A0200A3400200A34002007C
:10C09000A3400200A3400200DDF20100A340020021
:10C0A000A3400200A3400200A3400200A3400200FC
:10C0B000A3400200A34002000000000000000000B6
:10C0C000A3400200A3400200A3400200A3400200DC
:10C0D00039D80100A3400200A34002000000000084
:10C0E0000000000000000000000000000000000050
:10C0F0000000000000000000000000000000000040
:10C10000000000000000000000000000000000002F
:10C11000000000000000000000000000000000001F
:10C40000044B05481B1A062B02D9044B03B11847ED
:10C41000704700BFFF390020FC39002000000000F9
:10C4200005490648091A891001EBD171491002D05B
:10C43000034B03B118477047FC390020FC3900203A
:10C440000000000010B5064C237843B9FFF7D8FF71
:10C45000044B13B10448AFF300800123237010BDD7
:10C46000FC39002000000000DCC4020008B5084BC5
:10C470001BB108490848AFF300800848036813B9A6
:10C48000BDE80840CCE7064B002BF9D09847F7E70A
:10C4900000000000003A0020DCC40200F83900204F
:10C4A00000000000154B002B08BF134B9D46A3F561
:10C4B000803A00218B460F461348144A121A0AF09C
:10C4C0005EFE0F4B002B00D098470E4B002B00D088
:10C4D00098470020002104000D000D48002802D0DC
:10C4E0000C48AFF300800AF0DFFD200029000AF0BD
:10C4F00009F80AF0B3FD00BF0000080000000120A9
:10C500000000000000000000FC390020D482002060
:10C5100000000000000000007047704710B50A4C92
:10C520000121204600F082FE20460E22022100F06A
:10C5300085FE20466E21642200F075FE20460349E8
:10C54000BDE8104009F067BDF03A0020509F02009E
:10C5500030B5202489B005462246002168460AF0FD
:10C560000EFE23460C4C0D486A46294602F0B2F8EE
:10C570002046012100F05AFE20460E22022100F042
:10C580005DFE642220466E2100F04DFE04492046E7
:10C5900009F041FD09B030BDF03A0020447A002096
:10C5A000599F020038B5092008F0A6F8144C2378EA
:10C5B000C0B9144D23B90123237007F015FE28607C
:10C5C00007F012FE2B68C01A40F6B833984215D90E
:10C5D0000D4B197891B901221A701B20BDE8384023
:10C5E00007F053BF53B1084B1A7800250AB11D70EC
:10C5F00002E0082008F09AF8257038BD38BD00BF69
:10C6000094780020403A0020EC3A002010B5114CFC
:10C610000621204601F018FB204601F003FB0E49DD
:10C62000204601F0D5FA04F1380001F0DFFA204687
:10C63000012101F033FB2046F422202101F02AFBE6
:10C6400020461E2101F024FB20460021BDE81040B9
:10C6500001F052BB207D00209C7800207047000034
:10C6600037B5174C1748184D03F0FAF84FF480719E
:10C67000204603F0FBF92046144C15492A460AF0DF
:10C68000BBFC204602F042FF2A46124920460AF02F
:10C69000B3FC062300930322052302210E4800F079
:10C6A00025FF0E4A002313600D4A82F838301364C8
:10C6B00082F84430936482F85030536503B030BD43
:10C6C0009C780020183A002080380020443A00204E
:10C6D00011FC010011CB0100F03A002098780020F5
:10C6E000943A00202DE9F3418F4C904D20464FF4B1
:10C6F000165109F068FD20468D4C8E4909F098FCD2
:10C700002046042102F093FC00220121204602F081
:10C710008FFC0421204602F075FD2946204602F0D8
:10C720004DFD2046844902F0C9FD2046834C8449D2
:10C7300002F0C7FD2046834903F0B8F82946204699
:10C7400003F0B2F82046804C03F0B2F87F4803F0C3
:10C7500081FA204602F002FF6421204602F0F6FE34
:10C76000FFF754FF022007F0BFFE0C2007F0B6FED3
:10C770000121082007F08CFF01211E2007F088FF0F
:10C780000121102007F084FF0221092007F080FF1B
:10C7900002211B2007F07CFF02211C2007F078FFFC
:10C7A00002211D2007F074FF03226949694C1B20F8
:10C7B00007F078FC0121072007F06AFF012107201C
:10C7C00007F088FF0021082007F084FF00211E20C9
:10C7D00007F080FF0121102007F07CFF204600F0C9
:10C7E000A3FD204600F049FE5B4B0093002301228D
:10C7F0004FF48061184609F0A5F9584B05461860BA
:10C8000008F060FE002602462846554D0096334645
:10C81000012109F0B5F93146284600F06DFF2C23BF
:10C820006B600D234FF00A082B6108270F23284661
:10C83000AB61C5F80080AE602E736F6100F0B4FF8D
:10C84000284600F0C9FF2046012100F0EFFC4146D8
:10C85000204600F0F0FC32463146204600F0E3FC72
:10C860004049204609F0E4FB32460E21204600F004
:10C87000E5FC042007F05EFE3B4B07EE900A1860D3
:10C880003A4BF8EEE77A93ED007A67EE877A17EE87
:10C89000900A0AF04BF90022354B0AF09BF9354B10
:10C8A00000220AF0C1FA41EC100B0221204609F0E7
:10C8B0003EFC2046012100F0B9FC20460C2100F08E
:10C8C000BAFC2D49204609F0A6FB10222B49204630
:10C8D00009F001FC2046062100F0ADFC2849204665
:10C8E00009F0A6FB2046042100F0A5FC25492046BE
:10C8F00009F09EFB3946204600F09DFC2249204667
:10C9000009F096FB2046022100F095FC1F492046C5
:10C9100009F08EFB204600F066FD1D4A1D4BC3F852
:10C92000002602B0BDE8F08118800020689F020058
:10C93000447A0020619F020051C50100183A00208E
:10C940001DC50100769F0200443A00209C7800201B
:10C950001BC50100F03A002019C50100987800209D
:10C96000943A00207B9F02005479002084380020F4
:10C970000000104000408F40899F0200EFBEADDEF6
:10C980008C9F0200919F0200979F02009B9F0200D4
:10C990003546526E0000014038B5042007F0CAFD4C
:10C9A0004F4C504D2860204600F0E8FE204600F035
:10C9B000DBFE10226E214C4800F035FC01214A4874
:10C9C00000F034FC0E220221474800F037FC0A2216
:10C9D000A168454809F07DFB4449434809F01BFB29
:10C9E00000226E21404800F01EFC01213E4800F06C
:10C9F0001DFC0E2202213C4800F020FC3C4BD5EDF2
:10CA0000007A93ED007AF8EEE77A67EE877A17EE10
:10CA1000900A0AF08BF80022364B0AF0DBF8364B0E
:10CA200000220AF001FA41EC100B02212E4809F015
:10CA30007BFB32492C4809F0EEFA2B4800F0D3FC7E
:10CA400020226E21284800F0EEFB0121264800F04C
:10CA5000EDFB0E220221244800F0F0FB20226E2183
:10CA6000214800F0E0FB30226E211F4800F0DBFB84
:10CA700040226E211C4800F0D6FB21491A4809F0DB
:10CA8000CAFA194800F0AFFC1E4802F079FFB8B1AD
:10CA90001C4802F052FF01210446134800F0C6FB77
:10CAA0000E220221104800F0C9FB5A2200210E4834
:10CAB00000F0B9FB0A22E1B20B4809F008FBE3E7FA
:10CAC0001C2007F019FE08B907F0CCFC322007F053
:10CAD00096FBFFF767FD0C4B0C4AC3F8002638BDE8
:10CAE000943A002054790020F03A00205F9F020021
:10CAF000843800200000104000408F40A09F0200BA
:10CB00005D9F02009C780020000001403546526E77
:10CB100010B5044B044640F8103B01F0EFF92046F5
:10CB200010BD00BF20A802002DE9F04F85B01F46C0
:10CB3000BDF93830BDF83CA015469A1A002AB8BF96
:10CB4000524200927A1A002AB8BF524201920C4611
:10CB5000009A01998A42814605DD3A461F461346EE
:10CB600022462C461546BC4205DD2A461D46134684
:10CB700022463C4617465A1B002AC4EB0708B8BF9A
:10CB800052421FFA88F8039202260FFA88F292FBAB
:10CB9000F6F64FF6FF729D42B8BF0122B6B202927E
:10CBA000BC421FDC019A009B9342D9F80030C8BFF9
:10CBB0002246D3F810B0C8BF29465346DCBF2A46E8
:10CBC00021464846D847039BF61AB3B29EB23204B8
:10CBD00005D5029A08EB030615442DB2B6B201340E
:10CBE00024B2DDE705B0BDE8F08F10B40468A46896
:10CBF000A4465DF8044B604730B40468BDF80850A3
:10CC00000295246BA44630BC604730B40468BDF87C
:10CC100008500295646BA44630BC604770B4046849
:10CC2000BDF90C50BDF8106004960395A46BA446A2
:10CC300070BC604770472DE9F3411C460368BDF89E
:10CC40002080DB6805461646013C34440F4624B27A
:10CC500098472B68CDF8048000941C6A28463B4610
:10CC600032463946A0472B685B6A284602B0BDE8C9
:10CC7000F04118472DE9F3411D460368BDF82080B7
:10CC8000DB68044617460E4698478DE88001226807
:10CC90006B1E3344156A20461BB23A463146A847FC
:10CCA00023685B6A204602B0BDE8F04118472DE9D1
:10CCB000F3471E460368BDF92880DB68BDF82C9059
:10CCC0000C460546174698472644B4422A680BDAB4
:10CCD000CDF80090D2F818A0214643463A4628469F
:10CCE0000134D04724B2F0E7536A284602B0BDE8C9
:10CCF000F047184713B5B0F90E200468019100926F
:10CD00000022B0F90C30A46B1146A04702B010BD50
:10CD10002DE9F7439942904607460E461C46BDF959
:10CD20002850BDF82C9002680BD1A845C2BF4346DD
:10CD3000A8461D466B1CCDF82890C8EB0303146B66
:10CD40000CE0A84513D19942C4BF0B462646CDF846
:10CD50002890C8BF1C46631C546B9B1B1BB24246E9
:10CD600031463846A44603B0BDE8F0436047D36877
:10CD700098473B688DE8200238461D6A42462346A4
:10CD80003146A8473B685B6A384603B0BDE8F043CC
:10CD900018472DE9F3471E460368BDF82C80DB6871
:10CDA000BDF9289004460D46174698472368CDF8EC
:10CDB0000080D3F81CA03A46334629462046D04787
:10CDC0002368CDF8008009F1FF323A44D3F81CA063
:10CDD00029463346204612B2D0472368CDF800805A
:10CDE000D3F818A03A464B4629462046D047236838
:10CDF000CDF80080711E294420469D693A464B4675
:10CE000009B2A84723685B6A204602B0BDE8F04734
:10CE10001847704701F003010129417603894289CF
:10CE200004D0032902D08381C28170478281C381EB
:10CE30007047000030B501810024094D4281818195
:10CE4000C2814FF6FF71012244600560447604827E
:10CE500044820276C18281828276C476C46130BD0A
:10CE6000AC9F02002DE9F04F91B09146C269049148
:10CE70001E46BDF8683002930446BDF86CA09DF8CC
:10CE80007050002A40F0B580B0F90C308B4240F36E
:10CE90004B81B0F90E304B4540F34681062313FB1E
:10CEA0000513002B40F3408109EBC503002B40F331
:10CEB0003B81C37E1BB9AF2E84BF0136F6B2236817
:10CEC0002046DB68984705230B931FFA85F800235B
:10CED00007930FFA88F305939DF91C3094490522B6
:10CEE00012FB06321FFA89F78A5C0692BDF8102001
:10CEF00003929AB20A92039A089703FB082307F158
:10CF0000080292B21BB20D9209970C93069BD907A7
:10CF100014D5012D07D10A9B039A99182368D3F8D9
:10CF200010B0029B16E0029A23680192059A0092C3
:10CF3000D3F814B01346BDF924201AE0029B5345E0
:10CF40001AD0012D0BD10A9B039A99182368D3F8A4
:10CF500010B053463AB209B22046D8470CE0059AC1
:10CF600023680092CDF804A0D3F814B01346BDF99D
:10CF700020200C992046D847069B5B080693099B06
:10CF800043449BB20993089B43449BB208930137E7
:10CF90000D9BBFB2BB42B9D1079B0133DBB20793F4
:10CFA0000B9B013B13F0FF030B9395D1029B534561
:10CFB00000F0B380012D22680AD10399CDF800A0BA
:10CFC0000531956908234A4609B22046A847A4E0DE
:10CFD000039BCDF804A008EB88010B4419464FEAE7
:10CFE000C803009356692B464A4609B22046B0470B
:10CFF00093E0137AF61A5368F6B203EBC606136889
:10D000000B93B37896F806A00793F3780C93012D51
:10D01000737908938ABF4FFA8AF300239BB2B6F85C
:10D0200000B08EBF05931E460593036888BF9DF927
:10D030002060DB6888BFB6B29847ABB20693BDF8F4
:10D0400010300493BDF8183016FB03F6049B1E4401
:10D05000B3B20A931FFA89F30026099343FA8AF3BD
:10D06000B04603960F930C9BF2B29A4255D2059BA1
:10D07000BDF81810DDF82890F31813FB01F3099997
:10D080000B449BB20D930F9B13444FF0000A0E9379
:10D0900007995FFA8AF208EB02039142DBB236D9B4
:10D0A0005A0707D10B9A0BF1010312F80B200392D8
:10D0B0001FFA83FB039B1B061ED5012D0FD19DF884
:10D0C0002020049B43FA82F12368BDF938201B69B4
:10D0D00051441F4609B2029B2046B8470CE0029912
:10D0E00022680191009552692B4617460FFA89F183
:10D0F000BDF934202046B847039B5F00FBB2039381
:10D10000069B99440AF1010A1FFA89F9C0E7079BB7
:10D1100098445FFA88F80136A5E723685B6A2046E1
:10D1200011B0BDE8F04F184711B0BDE8F08F00BF57
:10D13000F49F02007FB5C26904460B46002A2DD138
:10D140000A2905D10282438A027E03EBC2032EE044
:10D150000D2965D0817E007E69B1B4F91050062199
:10D1600011FB0051B4F90C50A942C1BF2282628A5E
:10D1700002EBC00262820290E08A0190A08AB4F9B8
:10D1800012200090B4F910102046FFF76BFE237EAA
:10D19000228A03EB430302EB430340E00A2908D150
:10D1A00000230382017E927A438A01FB0233638269
:10D1B00036E00D2934D0157AA94231D3517A9942FB
:10D1C0002ED351685D1B01EBC505A97811B3E87832
:10D1D00000B3A67E207E8EB195F905603144B4F986
:10D1E000106000FB0161B4F90C60B14206DD002162
:10D1F0002182927A618A02FB001262820290E08AA6
:10D200000190A08A0090B4F91220B4F910102046C1
:10D21000FFF728FE2979227E238A01FB023323822D
:10D22000012004B070BD018242827047002908BF0E
:10D23000012101767047C182818270478182C2825A
:10D240007047F0B5056C8D4227DC846C2E19B14215
:10D2500023DA476C974220DCC66C3E44B2421CDAAB
:10D26000D21B11F0010F4FF00206A1EB050194FB58
:10D27000F6F591FBF6F102FB0514204418BF03F00C
:10D280000F0390F8AC200BBF02F00F0222F00F0248
:10D2900042EA0313134380F8AC30F0BD204B214920
:10D2A0001A68062300BF00BF00BF00BF00BF00BF59
:10D2B00000BF00BF8A422FD000BF00BF00BF00BF29
:10D2C00000BF00BF00BF00BF00BF00BF00BF00BF66
:10D2D00000BF00BF00BF00BF00BF00BF00BF00BF56
:10D2E00000BF00BF00BF00BF00BF00BF00BF00BF46
:10D2F00000BF00BF00BF00BF00BF00BF00BF00BF36
:10D3000000BF00BF00BF00BF00BF00BF00BF00BF25
:10D3100000BF00BF00BF00BF013BC3D1704700BFCB
:10D320002C3900200024F400014800F08FB900BF20
:10D330006479002038B5064C0D462046012100F0E6
:10D340009BF929462046BDE8384000F0ACB900BF43
:10D350006479002038B5064C0D462046002100F0C7
:10D360008BF929462046BDE8384000F09CB900BF43
:10D3700064790020AF2A70B504460D46164631D8B0
:10D38000FFF78CFF012190F8200007F0A3F9FFF7C9
:10D3900085FF94F82F10890161F06F0101F0D00131
:10D3A0002046FFF7C7FF711CC9B22046FFF7C2FF36
:10D3B0006E1E573516F8011F2046FFF7BBFFB5421A
:10D3C000F8D120460021FFF7C5FF20460021FFF7D6
:10D3D000C1FFFFF763FF94F820000021BDE8704013
:10D3E00007F078B970BD036C826C99182DE9F04193
:10D3F000AF2904464FF0000500F154074FF0020832
:10D400004FF00206CABFC3F1B00392FBF6F693FBDE
:10D41000F6F6E36C9D4224DA636C2B44B02B20DCDF
:10D42000B4F8521001F00F0343EA01115822C9B2B7
:10D43000384609F0A4FE206CA16C90FBF8F091FB3B
:10D44000F8F1204405FB01413246AC31543009F07B
:10D4500070FE626C39462A442046FFF78BFF013587
:10D46000D7E794F8311094F8230081F0010184F893
:10D470003110BDE8F04107F02DB9B0F8521001F0BD
:10D480000F0310B543EA011104464FF47252C9B2BA
:10D49000AC3009F074FEFFF701FF94F82000012181
:10D4A00007F018F9FFF7FAFE94F82F10890141F000
:10D4B0002001204601F0E001FFF73CFF204600215B
:10D4C000FFF748FF94F8311094F8230081F0010130
:10D4D00084F8311007F0FEF8FFF7E0FE94F8200022
:10D4E0000021BDE8104007F0F5B80000F8B5164679
:10D4F000B02204460F4611461D46FFF79BFC2A4BFF
:10D5000023600E23A4F852309DF8183084F823309D
:10D5100084F82050284684F8217084F82260012184
:10D5200007F0D8F894F82000012107F0B1F894F83A
:10D530002300012107F0ACF80025B023A364E364C5
:10D54000294694F82300A563E56384F832502564E6
:10D55000656484F82F5084F8305084F8315007F017
:10D56000B9F82946582204F1540009F008FEB4F82D
:10D57000521001F00F0343EA01114FF47252C9B285
:10D5800004F1AC0009F0FBFD04F574507622294645
:10D590002C3009F0F4FD2046FFF76FFF402384F89C
:10D5A0002C302046F8BD00BFFCA4020038B5002591
:10D5B000057329B90B4B0C4A0C48232109F022FDB5
:10D5C00001600B4951F82220027151F82330837118
:10D5D0009DF8103051F8233043710223C3718560E8
:10D5E00038BD00BF81A5020044A502008FA502003E
:10D5F000CCBE0200037B23B9437383730361012311
:10D60000037370471FB50DF1100E0EE90E009DF863
:10D610000810026800230129C2F80035039B08D0D6
:10D6200004D3032907D143F0040304E043F00203C9
:10D6300001E043F00603C2F85435019BC2F82435DB
:10D640000123C2F8003505B05DF804FB10B5FFF703
:10D65000D1FF03688279C3F808254279C3F80C2505
:10D660000279C3F81025034BBDE810400ECBFFF73D
:10D67000C9BF00BF58790020C37911F1FF3118BF2D
:10D680000121012B816008D004D3032B07D141F085
:10D69000040104E041F0020101E041F006010368E9
:10D6A000C3F8541570470368C3F81C15D3F8082154
:10D6B000002AFBD0D3F818050022C3F80821C0B215
:10D6C0007047000007B5094A09490A484FF08043EE
:10D6D00013600023936002231371032200920B2234
:10D6E000FFF764FF03B05DF804FB00BF587900202A
:10D6F0000030004064790020104B1860104B40F659
:10D70000FF72C3F808250F4A402082F82403102036
:10D71000C2F88401506002F1602202F580320020DC
:10D72000106082B012680192019A0122C3F80423AA
:10D730001A60054B197002B0704700BF8079002055
:10D740000040024000E100E079790020054AC36909
:10D75000127822B90C2B84BF01220C3B02731846AD
:10D76000704700BF7979002008B50146FFF7EEFF4A
:10D770000B6A4B604B6A08608B6008BDC36A03612B
:10D78000036B4361436B836170470000054B1B785B
:10D7900013B1172905D803E00C2902D802B10C31C6
:10D7A000C16170477979002010B5027B0168FFF7ED
:10D7B000EDFF43683B2B98BF036283683B2B98BF08
:10D7C000436210BD4B1E1E2B98BFC16270474B1E9B
:10D7D0000B2B98BF0163704708B50169FFF7F2FF93
:10D7E0004169FFF7F4FF8369436308BD022AD8BF8C
:10D7F00001F1FF3140F26D1010B54FF0040491FBC0
:10D80000F4F400FB01406FF0630491FBF4F4044472
:10D81000D8BF0C324FF4C87091FBF0F12144992429
:10D8200062436FF4E4700244052092FBF0F001447F
:10D83000C818A0F5997010BD454B1A682DE9F34141
:10D84000002A40D000221A601B6842490093009BC6
:10D850000B780133DBB2082B01D00B7033E03E4B69
:10D860000A701B68596A01313C2901D059622AE0CB
:10D87000196A5A6201313C2901D0196223E0D96941
:10D880001A620131182901D0D9611CE0DA61596BA3
:10D890001A6B324CD86A11F0030F02F1FF360CBF3D
:10D8A0000125002504EB46040130645DD862A042E6
:10D8B00009D1012002440D2A08BF0131D86212BFEC
:10D8C0001A6318635963264B1A68002A3CD0002259
:10D8D0001A601B680193019B224B234901221A60A5
:10D8E0001D4B1C68A36CDB00C1F84035236C3BB1B9
:10D8F000052B05BF1D4BA3640133226418BF2364AD
:10D9000094F84430A3B1666B276BD4F82C807A1C52
:10D91000434631462046FFF769FF434605463A46EF
:10D9200031462046FFF762FF114B281A5843A06486
:10D93000A36CE364E36B1BB9012384F8503003E06C
:10D940000C4B1B6803B1984702B0BDE8F08100BFE3
:10D95000004102407879002080790020F9A502007A
:10D960004041024008400240004002400085E20180
:10D97000805101007C7900202DE9F84380460D4656
:10D98000174601EB02090C464C45A4EB050609D0ED
:10D99000D8F8003014F8011B1B684046984700284F
:10D9A000F2D100E03E463046BDE8F88370472030B3
:10D9B00008F0F0BB38B5437F0D462BB100F1680489
:10D9C000204608F0F5FB08B1002038BD2046294666
:10D9D00008F0C3FB012038BD203008F0CDBB20305B
:10D9E00008F0DEBB2DE9F0411E464FF47A730025A6
:10D9F0008360104B4560044640F8203B174688463C
:10DA000008F0A0FB04F1680008F09CFB0A4B9DF8AD
:10DA10001820C4F8108053F8222062769DF81C204C
:10DA2000676153F82230A376267665772046BDE8F5
:10DA3000F08100BF1CA60200CCBE02004369D3F8EF
:10DA4000642170B5044682B10022012500F1200650
:10DA5000C3F864210577304608F08AFB63694022E9
:10DA6000C3F83465C3F838251D636369D3F86821AA
:10DA7000D2B10025C3F8685104F168060123637729
:10DA80002577304608F074FBD4F8B43003B19847DA
:10DA9000657765693046C5F8446508F07BFB6369C6
:10DAA000C5F8480501225A636369D3F804215AB1C5
:10DAB0000022C3F80421227F32B1D3F83C05D4F808
:10DAC000B830206603B198476369D3F8242142B186
:10DAD0000022C3F82421D3F8D024C3F8D024012293
:10DAE0005A6170BD0148FFF7A9BF00BF84790020CB
:10DAF00007B5122311228DE80C004FF040220423B9
:10DB000011460348FFF76EFF03B05DF804FB00BF4A
:10DB10008479002072DF704773DF704774DF7047CD
:10DB20000022C2770270704770B51D46C37F0E4653
:10DB30001146EA181D2A04460EDC18446A1CE254F9
:10DB4000023000F8016C2A4609F0F3FAE27F023253
:10DB5000AB18E377012070BD002070BD2DE9F041C6
:10DB6000002688B007460D4601EBC20834464545FD
:10DB700016D0284601F0A3F9102802D0802809D039
:10DB80000CE008AA631C02EB44042A8824F8202C29
:10DB9000DCB203E00EB1002017E06E680835E6E75E
:10DBA00014B966B9012010E0630003F0FE036A4671
:10DBB00003213846FFF7B8FF0028F2D1EBE7102326
:10DBC000324607213846FFF7AFFF08B0BDE8F081C5
:10DBD00013B50831044603C901228DE803006946E4
:10DBE0002046FFF7BBFF02B010BD000010B588B0A3
:10DBF0006946044620220A4801F0F4FAE27F13182D
:10DC00001D2BC4BFC2F11D02D0B20346CCBF0821F8
:10DC100009216A462046FFF787FF08B010BD00BF04
:10DC2000447A002013B50446064801F00DFB02AA11
:10DC3000012302F8010D0A212046FFF775FF02B00B
:10DC400010BD00BF447A002007B502AA012302F8E4
:10DC5000011D1946FFF768FF03B05DF804FB08B526
:10DC60000346FFF75DFF0121002283F821102021E8
:10DC70009984F420198583F820201E21D88483F804
:10DC800022205985DA859A851A635A63184608BD99
:10DC9000418570478184C2840185704780F82110D6
:10DCA0007047000070B5044686B00E461546002148
:10DCB0001822684609F063FA94F820308DF8003095
:10DCC0006846ADF81060ADF81250FFF725FF70B947
:10DCD000084801F0D7FBE28D268595424FF0010000
:10DCE00094BF521B921A84F82200E28500E00020C3
:10DCF00006B070BD447A002038B50C4DC1858185D1
:10DD000095F83333C17F05F545720446FFF702FFEE
:10DD100050B92846FA2101F09AFA628DA18C20466A
:10DD2000BDE83840FFF7BEBF002038BD447A002070
:10DD300008B50346FFF7F2FE30B983F82200034826
:10DD400001F0B1FB012008BD002008BD447A00208D
:10DD500038B50B88112B044612D01B2B24D0102B66
:10DD600059D18D7D012D56D1002380F822302A48CB
:10DD700001F099FB29462848BDE8384001F09FBBD7
:10DD80008988254800F07CFC012844D100212248E4
:10DD900001F095FB94F82130002B3CD0A18D20465A
:10DDA000BDE83840FFF7A8BF0B7A002B33D180F8CD
:10DDB00022304FF4FA71184801F049FAA38D23B9C3
:10DDC000636B03B19847002205E0E38D4BB1636BB1
:10DDD00003B19847E28DE18C2046BDE83840FFF75B
:10DDE00061BF0D4801F05FFB236BA3B107F0C4FDD9
:10DDF00001284FF0100002D109F07CF901E007F092
:10DE0000E8FF0023226B0372036043724260BDE8A7
:10DE1000384008F04DB838BD447A002010B50446AB
:10DE200007F0AAFD0128204603D1BDE8104009F003
:10DE300061B9BDE8104007F0CCBF10220280182263
:10DE4000428000224260826070470000014800F07A
:10DE5000ADBB00BFAC7D0020F7B50F888C88102FBC
:10DE600005460E4602D0112F19D038E021461D4834
:10DE700000F006FC022832D16B6883B33846FFF706
:10DE8000CDFF00226968026042720122027202AA7A
:10DE9000034642F8084D41601068D86019E02146F9
:10DEA000104800F0EDFB0228074618D1AB68B3B16B
:10DEB0001420FFF7B3FFA96841600022026042729C
:10DEC0000772327A019200946A46034603CAD86008
:10DED0001961184603B0BDE8F04007F0E9BF03B090
:10DEE000F0BD00BF447A0020A2DF7047A3DF704777
:10DEF000A4DF7047A5DF7047A6DF7047704710B5F5
:10DF0000044608F055FB204610BD000070B55A4B82
:10DF100004461B680361061D96B0304600F0DDFF25
:10DF200094F8223013F0320101BF94F8232061F3FA
:10DF3000030261F3071284F8232013F00C0101BFE0
:10DF400094F8242061F3030261F3071284F824207B
:10DF500013F030050ED04FF00003012262F34203AC
:10DF60008DF80630454B1B788DF8043094F823303B
:10DF70008DF805301C2200210FA809F000F994F853
:10DF800022308DF83C3000230DB91A4600E001AA7A
:10DF9000ADF8083014924FF00003012262F34203FF
:10DFA00060698DF80A3094F823308DF8083058B144
:10DFB00003784BB1109009F0FAFF02AB80B2ADF8D4
:10DFC0004400ADF846001393A37E13B104F11A0385
:10DFD0001293142200210DEB020009F0D0F804F195
:10DFE0002303069394F825300596DB0754BFE38995
:10DFF0000023ADF81C30E389ADF8203005AA04F108
:10E0000026030FA90020FFF76FFF054670BB637E54
:10E0100033B30346012262F342038DF80E3094F8C5
:10E020002330ADF80C008DF80C30154B18680490B7
:10E03000142229460AA809F0A2F80223ADF83030CC
:10E04000ADF8343004AB0A9303AB0B930DF102022D
:10E0500004F118030AA928460E93FFF747FF40B9B9
:10E06000257B2DB92146074800F080FD284600E0B9
:10E07000002016B070BD00BF407A002034A6020018
:10E0800036A60200207B00200B88502B73B5054676
:10E090000C4614D0512B2CD18B79022B03D1436B1E
:10E0A0000BB108319847A379012B22D12B6B03B315
:10E0B00004F10801284602B0BDE870401847CA883C
:10E0C000C38C9A4205D1866B1EB1CB890A8A123164
:10E0D000B047E2886B8D9A420BD1EB6B4BB1628AF1
:10E0E000ADF80620BDF80610284602B0BDE8704025
:10E0F000184702B070BD00001422C281104A127885
:10E1000080F8242080F8232001214FF00102002311
:10E1100061F342020373036143610383C0F81A3061
:10E12000C0F81E3080F8223080F82520C384038593
:10E1300083854385036343638363C363704700BF81
:10E1400034A6020013B504468DE8060023460649AE
:10E1500043F8041B9DE8030083E805002046FFF711
:10E16000CBFF204602B010BD44A6020000697047F4
:10E1700001230373704780F822107047C1817047F4
:10E1800090F8253019B1C1816FF3000301E043F02D
:10E19000010380F82530704780F8231080F8242090
:10E1A0007047816370470A1C90F82530416318BF9F
:10E1B000012262F3041380F82530704741617047F3
:10E1C00051F8263F03604B684360704713B5C4891C
:10E1D0000191A24228BF224600230093C18CADF8D2
:10E1E00000204FF6FF706A46FFF782FE10B9BDF8B7
:10E1F000000000E0184602B010BD38B505460846DC
:10E200000C4609F0D4FE214682B22846BDE83840CB
:10E21000FFF7DCBF07B502AB012203F8011D194669
:10E22000FFF7D4FF03B05DF804FB07B502AB022291
:10E2300023F8021D1946FFF7C9FF03B05DF804FB80
:10E2400030B5054685B0114801F020F8E0B1688D81
:10E25000D0B10223002402940C48ADF808300DF12F
:10E260000603039301F030F802AA698DFFF742FE1E
:10E2700043F20143984202D1ADF8064002E008B1F2
:10E2800080B201E0BDF8060005B030BD447A002040
:10E2900008B590F8222002F0100202F0FF0322B12C
:10E2A000FFF7CEFF00F0010008BD184608BD0000D2
:10E2B0002DE9F04190F8223003F010030E4686B0AD
:10E2C000054603F0FF01002B46D0C489944228BFC5
:10E2D0001446FFF7DDFF0746002837D0214800F03D
:10E2E000F3FF01461F4800F0EFF903381FFA80F8EA
:10E2F0009CB31C4800F0E8FF01461A4800F0D1F931
:10E3000058B3A04543464FF0000128BF23461022D2
:10E3100002A8ADF8063008F032FF01238DF80A306C
:10E32000EB8CADF808300F4805960DF10603049309
:10E3300000F0CAFF02A9FFF7DFFD28B9BDF80630DB
:10E34000E41AA4B21E44D3E7002706E02246314671
:10E350002846FFF73BFF00E00F46384606B0BDE811
:10E36000F08100BF447A002096DF704798DF704745
:10E3700099DF704710B5044607F0FEFA01282046E1
:10E3800003D1BDE8104008F0B5BEBDE8104007F06D
:10E3900020BD002383827047806900F0F7B8808A2F
:10E3A000704700002DE9FF410B88CF88382B0446C9
:10E3B0000D4674D0392B03D0362B40F0E180B9E004
:10E3C0008B7B012B02D0022B32D0D9E0C36A002B09
:10E3D00000F0D68090F8342012F0010F0A8A24D081
:10E3E0001046FFF7C7FF0646002800F0C9802A8ABA
:10E3F00005F1120108F09DFE1820FFF7BBFFE26A4D
:10E40000426000224272032202722A8A066003924C
:10E410000194029601AA034603CAD86019611068E4
:10E420005861184607F044FDAAE012319847A7E06A
:10E43000036B002B00F0A48090F834208E8812F03B
:10E44000020F0A8A24D01046FFF794FF07460028DF
:10E4500000F096802A8A05F1120108F06AFE182061
:10E46000FFF788FF226B4260002242720322027291
:10E470002A8A076003920194029701AA034603CAFD
:10E48000D860196110685861184607F011FD01E065
:10E4900012319847A9893046FFF76AFF70E017B13B
:10E4A00004F11C006AE000F11C064A8A3046394635
:10E4B00001F09DFC95F80E80B8F1010FF0D0B8F195
:10E4C000040F5DD1A06900F061F801462E4800F00C
:10E4D000FBF8228DA38A053880B2904228BF1046EF
:10E4E000B0B101972A8AADF806306B8AADF80A0000
:10E4F0001344ADF80830A069636A8DF80480039373
:10E5000000F044F801A9FFF731FF002838D00FE0F0
:10E510000522029003908DF80420A069ADF8063022
:10E5200001228DF8052000F031F801A9FFF71EFF48
:10E53000304623E0806900F029F80146124800F0D7
:10E54000C3F80646002FABD104F11C072A8A05F157
:10E550001201384601F04BFC238D73B1033E2B8A28
:10E56000B6B2013EB34208DBA06900F00FF8628D3D
:10E57000A18A92B2FFF7F8FE10B1384601F04FFCC5
:10E5800004B0BDE8F08100BF447A00208088704765
:10E5900010B50446043001F0DEFB012323804FF662
:10E5A000FF73638000232375204610BD017D10B5E5
:10E5B000044621B9043001F0D2FB0123237510BDBC
:10E5C000007D70470B88322B10B5044611D0332BD9
:10E5D0001BD0302B26D1CB8833B98B8923B10A22AB
:10E5E0000C31201D01F003FC201DBDE8104001F09E
:10E5F00016BCCB88002BF7D18A89002AF4D0013AC7
:10E6000002EB820252000C320AE0CB88002BEBD1E5
:10E610008A89002AE8D0013A02EB4202520008320D
:10E6200092B2DDE710BD7FDF704786DF704762DFA3
:10E63000704710B5C822044600210C3008F09FFD39
:10E64000172303222380E3804FF0010362F30613B4
:10E6500084F8D430072384F8D530102384F8D630DA
:10E6600084F8D72084F8D820204610BD01290CBF9B
:10E670000088C0887047282303FB0101487B70474E
:10E68000282303FB0101887B704710B5282303FB77
:10E69000021252F8123F036093888380937983714A
:10E6A00010BD042908B50DD8282303FB0101086A11
:10E6B00048B100236622194606F0C8FC003018BF96
:10E6C000012008BD002008BD282303FB0101088AA2
:10E6D00070470000F0B587B004AC16461F460D46E3
:10E6E00020464FF4285100F0DFFB8DE8C0004FF6C4
:10E6F000FF7303930123029394E80C002946024818
:10E7000000F0F6F807B0F0BD207B0020F0B58E8851
:10E710004FF6FF739E4218BF28240B881ABF04FBD4
:10E7200006040C340024132B95B007460D4643D045
:10E7300007D8102B0ED0112B32D0012B40F0C08007
:10E74000AEE0192B66D01A2B00F09880142B40F005
:10E75000B78078E0012323708B7DA37055F8082FD4
:10E76000C4F80620AA886281AA7922731723A3809D
:10E7700069463046FFF75BFF9DF80010084606F03B
:10E7800069FBF6B2282303FB06766061B37B012B9D
:10E790000CBF3879B87A014606F05CFBA0618FE0C7
:10E7A000002560696570257006F000FD6561A0694F
:10E7B00006F0FCFCA56183E007F0DEF801284FF0CD
:10E7C000500002D108F096FC01E007F002FB05467C
:10E7D0002061002874D05022002108F0D0FC4FF6B0
:10E7E000FF732022E3810021684608F0C8FC05F190
:10E7F0001C030493A3780095012B05F138050CBF89
:10E8000007F1D40200226B46002130460595FFF740
:10E810000AFF55E00B7A43B92269A078012363709F
:10E82000538AE381314601F07DFB256907F0A4F8A6
:10E830000128284602D108F065FC01E007F0D5FA6E
:10E84000002323613CE050220021684608F097FC39
:10E850006A46298AA07801F091FB0346A88843B153
:10E8600000230EAA6946FFF7E0FEBDF81230E381EF
:10E8700026E01A461946FFF7D8FE21E00B7A112B45
:10E8800006D0E289A078314601F004FC01236370D0
:10E89000606AA8B100231A46194606F0E5FA0FE0AF
:10E8A00063696BB100262A7AF3B29A4206F1010637
:10E8B00006D900231A461946606906F0D5FAF2E730
:10E8C00015B0F0BD95DF704738B50446F82500F562
:10E8D000F87001F040FA2A460021204608F04FFC6B
:10E8E0002A460021601908F04AFC204638BD000085
:10E8F000F0B585B08DE80C00BDF83030ADF80C30C7
:10E90000BDF83430ADF80E300F466E4600F5F875A0
:10E91000284601F06AFA044628B1124800F0DBFCF0
:10E9200005F06DFCF4E70121284601F018FABDF866
:10E930002C200A99284601F027FA03AA31463846C6
:10E94000FFF7C0FF28B94FF4FA71284601F021FA09
:10E950000446284601F00CFA24EAE47080B205B0BF
:10E96000F0BD00BF447A00202DE9F04F0D888F885C
:10E97000A5F11003012B87B004460E4612D84FF0C4
:10E98000000822785FFA88F39A420BD99B0023444F
:10E99000112D586803680CBF1B685B68984708F125
:10E9A0000108EEE7704800F08FFC874217D14FF066
:10E9B00028094FF0000A09FB07F90AE0502D13D08F
:10E9C000512D04D1B6F80880B8F1000F0FD10AF12B
:10E9D000010A94F854205FFA8AF39A42EED804F5BB
:10E9E000A67A4FF000091FE0B6F80680ECE7163370
:10E9F000684654F823B05946FFF7E2FBBDF8002003
:10EA0000424500F08E80594602A8FFF7D9FBBDF8B9
:10EA10000C204245DBD184E05AF8040FFFF7BCFC20
:10EA2000874206D009F1010994F84C319945F3DB8E
:10EA300016E0382D03D0392D01D0362DF2D1B6F89D
:10EA40000C80B8F1000FEDD0DAF800B05846FFF7AF
:10EA5000A6FC8045E6D131465846FFF7A3FCE1E726
:10EA6000112D26D1002594F8F820EBB29A4201D856
:10EA7000002618E004EB8303D3F8FC008388BB4234
:10EA800002D103681B6898470135ECE704EB850564
:10EA9000D5F85001FFF780FC874203D1D5F850012B
:10EAA000FFF777FC013694F84C31F5B2AB42EDD864
:10EAB00057E0532D0FD0552D1FD0352D51D1B3898F
:10EAC0004BB104F5F874F2897169204601F08FF9B1
:10EAD000204601F0A4F9244A282307FB03331344FA
:10EAE0001446586820B100231A46194606F0BCF9AE
:10EAF000282202FB0747012310E01B4A282307FBBB
:10EB0000033313441446586820B100231A461946AB
:10EB100006F0AAF9282202FB0747002387F82830CD
:10EB20001FE0DBF800205846D268314690470E4877
:10EB300000F0CDFB00283FF44AAF502D7FF447AFE3
:10EB4000594604A8FFF73CFBBDF8143043457FF459
:10EB50003EAF054B4B4439465A8B987B01F026FA61
:10EB600035E707B0BDE8F08F447A002090F85430C4
:10EB7000282B1FBF5A1C163380F8542040F823104E
:10EB800014BF0120002070470378132B9FBF5A1C2D
:10EB9000027000EB8300416094BF012000207047A9
:10EBA0008ADF704710B5044606F0E6FE01282046CD
:10EBB00003D1BDE8104008F09DBABDE8104007F051
:10EBC00008B90000002330B501220370C3708380B0
:10EBD0000373836003614361054B427080220446E6
:10EBE000827000F118050FCB85E80F00204630BD7C
:10EBF00054A6020010B5044681841830FFF7D0FFF8
:10EC000028B9044800F03EFC0120207010BD00200F
:10EC100010BD00BF447A002038B5012A9DF8145079
:10EC20001BD948780C78984204D1013C0231E4B2F7
:10EC300009D114E0E0430244013412F0FF02214400
:10EC4000EFD1104638BD15B1AC4228BF2C46224644
:10EC5000049808F06EFA204638BD002038BD0846FA
:10EC600038BD37B50C7A9DF8185009318DE8280069
:10EC70001346E208FFF7D0FF03B030BD2DE9F04F97
:10EC80008FB002AC80462046894684E80C0000F034
:10EC900016F9C0B2102807D102238DF814300323CF
:10ECA0008DF81530274606E006238DF81430039FB3
:10ECB00007238DF815300026C508B2461F22002113
:10ECC00006A808F05CFA05AB4946F25CCDF800A056
:10ECD00006AB4046FFF7C5FF0DF1180B04465CB1CB
:10ECE0002A463946584608F015FA08B9012007E0C7
:10ECF000641BAB44E4B2F2E70136022EDED12046BB
:10ED00000FB0BDE8F08F00002DE9FF410B88112BFB
:10ED100004460D4669D002D8102B59D087E01B2B32
:10ED200075D01D2B40F0838090F9022091F90F30AF
:10ED30009A427CDC037B01F1080613B9E378BBB986
:10ED400025E04FF00008237B5FFA88F7BB420BD920
:10ED5000A36803EBC7030CCB31462046FFF78EFFB9
:10ED600008F101080028EED0237BBB42E6D15EE02B
:10ED700002230093FF2203AB31462046FFF771FFC9
:10ED8000002854D0A288BDF80C309A424FD12820D8
:10ED9000FFF708FF30350746034656F8042B43F8C3
:10EDA000042BAE42F9D12369002B40D01020FFF78D
:10EDB000F9FE22694260002242720122027204AA14
:10EDC000076042F8047D03461068D86018462CE0BE
:10EDD0008B7D022B2BD100230370164800F063FBC0
:10EDE0000121144800F06BFB21E089881148FFF7EE
:10EDF00047FC02281BD12178C9B90E4800F05FFBFF
:10EE00006378A3B1A18C2046FFF7F4FE0FE00B7AE4
:10EE1000022B0CD1436953B11020FFF7C3FE00222F
:10EE20006169026041604272027207F041F804B009
:10EE3000BDE8F081447A0020A0DF704770470000F1
:10EE400037B500F108050446284600F046F8294683
:10EE50000DF106020120FFF7EFFF054628B9044B2C
:10EE600004481C602146FFF78FFE284603B030BDE2
:10EE7000407A0020207B002013B504468DE8060070
:10EE80002346064943F8081B9DE8030083E8050074
:10EE900000232046A38002B010BD00BF6CA6020074
:10EEA00063DF704764DF70470123837000230180B4
:10EEB000436070470023837003804160704783780C
:10EEC000012B06D0426832B9012B8CBF8020002074
:10EED0007047102070478020704708B5837802463D
:10EEE00053B9406840B1911CFFF7DAFF1020516818
:10EEF000BDE80840FFF7D6BF002008BD52DF7047CD
:10EF000010DF704775DF704776DF704777DF704737
:10EF100078DF70477ADF70477CDF70477DDF7047AE
:10EF2000A9DF704760DF704761DF704770471320CB
:10EF300005F00EBC37B50E4C0E4DD4F898030023E7
:10EF40004FF0FF32194606F081F80028F5D001A8ED
:10EF5000FFF7D4FF10B10528F9D1EEE70198831E21
:10EF6000012BF4D8002DF2D005F036FAEFE700BF00
:10EF7000447A0020D943020010B5044606F0FCFC98
:10EF80000128204603D1BDE8104008F0B3B8BDE821
:10EF9000104006F01EBF10B50446FFF74AFB04F10F
:10EFA000DC00FFF791FC04F53770FEF758FE04F51E
:10EFB0004570FEF7B5FD04F54D70FFF703FE04F54F
:10EFC0005770FEF73AFF04F55A70FFF7E1FA04F5BF
:10EFD000697000F0C1FB4FF40062C4F88023012285
:10EFE00084F8A0234FF6FF720023A4F8F423102224
:10EFF000C4F88433A4F88A2384F88533182284F86B
:10F00000843384F8883384F8893384F89033C4F8DF
:10F010009433C4F89833C4F89C33A4F88C23A4F830
:10F020008E33C4F8F833C4F8FC33204610BD704763
:10F0300070B5584C80F8881390B0054680F8892345
:10F0400020680590544905A8FFF75AFF002840F0B2
:10F050009F80524B0693014614220BA808F08FF8AC
:10F060009DF8383043F001038DF8383095F885333A
:10F07000ADF82C3095F88833003318BF01238DF894
:10F08000343095F88933002B14BF042300238DF806
:10F09000353014BF012300238DF8363006A9D5F88A
:10F0A00080330F930BA8FFF73DFF002870D1C823D2
:10F0B0000A90ADF82A30B5F88A33ADF8243009A8A3
:10F0C000B5F88C33ADF82630FFF724FF00285FD168
:10F0D00010A8237900F8303D0B223149FFF71CFFBF
:10F0E0000446002853D1FFF713FF044600284ED1F1
:10F0F000FFF70CFF00284BD105F5697000F04EFBBF
:10F1000095F889331BB105F55770FEF79FFE032272
:10F110000021012005F080FEC5F8940308B9042001
:10F1200036E0002407AB032601934FF4C062234668
:10F130001C490394029400961B4806F0ADF8324631
:10F140002146012005F068FEC5F898030028E6D0A6
:10F1500008AB0193C82223461449039402940096F5
:10F16000134806F099F8134BC02283F816234FF486
:10F1700080021A60104B0093012223464FF48071E5
:10F18000204606F0DFFCC5F89C0300F0B5FE2046E3
:10F1900010B070BD78A602002DEF0100803800206D
:10F1A00098A60200A4A6020045F40100ABA6020046
:10F1B00035EF010000E100E02FEF010037B5084B0B
:10F1C00002AC1B7904F8043D08460D4608F0EFFE3A
:10F1D000294682B22046FFF79FFE03B030BD00BF34
:10F1E00078A6020007B5084602A921F8022DFFF70C
:10F1F00095FE10B99DF8060000E0002003B05DF810
:10F2000004FB000030B50F4C85B005460A46206867
:10F21000616801AB03C3217A1970002301A9C856A4
:10F22000904204D00133092BF9D1002007E01046A9
:10F23000FFF76CFE0028F8D185F89023012005B077
:10F2400030BD00BF7DA6020090F99003704773B5F2
:10F250000446D0F89C030E4606F0A6FD00230546A2
:10F26000B6024FF47A720093B6FBF2F20421D4F89E
:10F270009C0306F085FC3DB900952B462A460321E8
:10F28000D4F89C0306F07CFC02B070BDB0F8F40327
:10F290004FF6FF73C01A18BF01207047B0F8F4038F
:10F2A00008B54FF6FF73984206D01321FFF72CFEE6
:10F2B000B0FA80F0400908BD012008BDC0F8F8137D
:10F2C0007047C0F8FC137047B0F8F4037047B0F80B
:10F2D000F413FFF7D0B9B0F88E03704710B5064CA1
:10F2E0000021D4F8980305F08DFED4F89403002192
:10F2F000BDE8104005F086BE447A002073B5044690
:10F300000D468E88FFF702FA294604F53770FEF79E
:10F310001FFD04F54D702946FFF7F6FCB4F8F40321
:10F320002B88864205D0102B01D01B2B60D1112BCE
:10F3300001E0112B3DD002D8102B0AD058E0122B3F
:10F3400033D0522B54D100231A461946FFF7E8FD5B
:10F350004EE0AB7D012B4BD12B8BB4F88A23A888D0
:10F36000A4F8F4039A42A4F88E3363D8B4F88C233B
:10F3700093425FD8D4F8F833002B39D01020FFF730
:10F38000FBFD0022D4F8F8130260427201220272DF
:10F3900002AA4160B4F8F41342F8081D034610684D
:10F3A000D860184606F084FD22E02B89A4F88E333D
:10F3B0001EE0D4F8FC33BBB11420FFF7DDFD0022C2
:10F3C000D4F8FC1302604272022202724160B4F867
:10F3D000F42300922A7A01926A46034603CAD8604F
:10F3E0001961184606F064FD4FF6FF73A4F8F43374
:10F3F00094F8893363B1B4F8F433B34203D14FF6D0
:10F40000FF739E4204D1294604F55770FEF724FD90
:10F4100004F55A763046FFF7D3F818B1294630463E
:10F42000FFF7D0F8294604F1DC0002B0BDE87040D7
:10F43000FFF79ABA0021FFF765FD00289AD002B0C5
:10F4400070BD000030B50E4D95B000234FF0FF3277
:10F450001946D5F8940305F0F9FD0028F5D04724A6
:10F460000DF1060102A8ADF80640FFF75DFD20B9D9
:10F4700002A90348FFF742FFF2E70528E5D0EFE7CE
:10F48000447A002090F8A03313B553B1D0F89C43D0
:10F4900006F018F80023024600930121204606F0EA
:10F4A0006FFB02B010BD07B5002300931A4603217D
:10F4B000D0F89C0306F064FB03B05DF804FB90F801
:10F4C000A03313B1132005F005B9704710B5054CF2
:10F4D0002046FFF760FD2046034A0449BDE810407E
:10F4E00007F08ABD447A002080380020F1F4010042
:10F4F00010B5054BC0F8A433044600F56D70FEF757
:10F50000FDFC204610BD00BF54A8020073B505469F
:10F5100041F60F016846FFF7C7FC2E469DE806003E
:10F520002846FFF7A9FC084B46F8103B684642F610
:10F530001921FFF7B9FC9DE806003046FEF702FEF0
:10F54000284602B070BD00BF20A8020008B51030E8
:10F55000FEF760FE003018BF012008BD38B5044634
:10F56000FFF76EFC054690B9103420461221FEF7D5
:10F5700002FE2A4620461121FEF70EFE20460121FA
:10F58000FEF7FEFD2046BDE83840FEF7BFBC38BDA3
:10F5900044DF704745DF704711DF704713DF704766
:10F5A000A8DF7047AADF7047F0B59DB00C8807460A
:10F5B0000D46014608A8FEF703FEBDF82030A34221
:10F5C00040F0B680AB79043B022B40F2B180594E3B
:10F5D0003046FFF779FE1022044600210DEB0200B1
:10F5E00007F0CDFD022338468DF81030FEF750FEAF
:10F5F00040B940F2FD1304A92046ADF81430FFF7DE
:10F60000CFFF95E0002304A92046ADF81430FFF7A2
:10F61000C7FF2F7B012F40F08B80474D19463E22BC
:10F62000284607F0ACFD1CAA082322F8623D434996
:10F630003B462046FFF7B6FF224631466846FFF7B5
:10F6400024F800982860BDF804209DF80630AB71BE
:10F65000AA8021463046FFF70EF810B3282303FB9B
:10F66000046408AA618B384600F088FCC8B11AAC63
:10F6700094E80300324AA980090C2860A97116ADEC
:10F680002B4603CBA342106051601D4602F10802D5
:10F69000F6D108AC0FCC2B4D0FC594E8070085E8D8
:10F6A00007002548284C4FF6FF7110F8012B82EA1D
:10F6B000112383EA13139AB243EA012383EA023344
:10F6C00083EA4213A04299B2EFD11B4B19489987A4
:10F6D000FFF7E4FD1D48FEF72BFBFF20FFF75AFF65
:10F6E000B120FFF755FF18BBFFF756FF00BB184AC4
:10F6F000136823F001031360164B4FF48002C3F824
:10F7000080210124420900F01F012032013004FA57
:10F7100001F1272843F82210F4D14FF01023586943
:10F72000FFF73CFF20B980F31488586900F008FB0C
:10F730001DB0F0BD447A0020807F0020B47F0020FF
:10F74000877F0020987F0020BC7F0020207D002044
:10F7500010E000E000E100E073B505460C496846A2
:10F76000FFF7A8FB2E469DE806002846FFF784FB1E
:10F77000084B46F8103B68460749FFF79BFB9DE89E
:10F7800006003046FEF7DEFC284602B070BD00BF22
:10F790002CA8020054A802003CA8020030B5A3B077
:10F7A0000446FFF74DFB00284FD112AD29492846EA
:10F7B000FFF780FB95E8060002A8FEF7C3FC02A84D
:10F7C000FEF7D6FC042102A8FEF7D5FC02A81421FE
:10F7D000FEF7D4FC02A8FEF799FB88BB1034182171
:10F7E0002046FEF7C8FC17212046FEF7C7FC20463E
:10F7F0001949FEF7D8FC2046FEF788FB00BB1749E5
:10F800006846FFF757FB9DE806002846FEF79AFC7E
:10F810002846FEF7ADFC02212846FEF7ACFC02218B
:10F820002846FEF7ADFC2846FEF770FB044618B9E3
:10F8300001212846FEF7F9FC2846FEF75FFB00E0B1
:10F84000044602A8FEF75AFB00E00446204623B017
:10F8500030BD00BF60A80200A9F5010070A8020039
:10F8600037B5044641F60A016846FFF71DFB9DE8DF
:10F8700006002046FFF700FB074B2360074B236180
:10F8800000236361A361E361054B2362054B63625F
:10F89000204603B030BD00BFB4A8020080A802001B
:10F8A00086C2020095A8020001617047416270475C
:10F8B000F0B593B00546FFF7C3FA00283BD106F038
:10F8C0006FFB686106F03AFB0C35E86042F62426CF
:10F8D0006F4655F8043F3BB331463846FFF7E4FA2C
:10F8E00097E8060002A8FEF72DFC02A8FEF740FCF0
:10F8F000022102A8FEF73FFC286808F058FB81B2FD
:10F9000002A8FEF73DFC02A8FEF700FB044620B16A
:10F9100002A8FEF7F3FA20460DE0296802A8FEF7D8
:10F920006CFC02A8FEF7EAFA0136B6B242F62A23C8
:10F930009E42CED1002013B0F0BD07B5036801226E
:10F940009B690DF10701984710B19DF8070001E090
:10F950004FF0FF3003B05DF804FBA0F11000FFF79B
:10F96000ECBF13B502AB026803F8011D146A194617
:10F970000122A04702B010BDA0F11000FFF7F1BFB7
:10F98000D0F8A030988980B27047A0F11000FFF73E
:10F99000F7BF70B50D461646FEF7E8FB0446324643
:10F9A0002946D0F8A00006F0AEFED4F8A83013B176
:10F9B000BDE87040184770BD37B50546D0F8B400B3
:10F9C00080B10024009423462246052106F0D8F891
:10F9D000D5F8AC00C5F8B44020B103B0BDE8304064
:10F9E00006F04FBE03B030BDD0F8A00006F049BE0F
:10F9F000A0F11000FFF7F8BF08B592B2D0F8A00050
:10FA000006F0C2FE08BD07B5D0F8A0000DF1070151
:10FA100006F0D4FE10B19DF8070001E04FF0FF3072
:10FA200003B05DF804FBA0F11000FFF7ECBF00008D
:10FA300037B590F8B03004469BB10B4B00930122D0
:10FA400003460A21002006F07DF8C4F8B4000546FC
:10FA500005F038FD0023024600930121284606F0F8
:10FA60008FF803B030BD00BF5DFB0100F7B5044661
:10FA70000F4668461A49FFF71DFA9DE80600204622
:10FA8000FFF7FAF94FF47A73A361164B1649002673
:10FA900003F1080240332361226068466661FFF784
:10FAA00009FA9DE8060004F12000FEF74BFB6846CA
:10FAB0000E49FFF7FFF99DE8060004F16000FEF72C
:10FAC00041FB2046C4F8A060C4F8A860A4F8A47064
:10FAD000C4F8AC6084F8B060C4F8B46003B0F0BDA2
:10FAE000D0A80200E0A80200C0A8020038A90200C5
:10FAF00070B506461848FFF7E7FB01461648FEF7C3
:10FB0000E3FD033885B205F037FF0128284602D10E
:10FB100007F0F0FA01E006F05CF90446D8B12A4695
:10FB20000146D6F8AC0006F02FFE024630B1214661
:10FB300006F12000FEF7BCFB054600E0012505F0BC
:10FB40001BFF0128204602D107F0DCFA01E006F095
:10FB50004CF9284670BD70BD447A002008B506F007
:10FB60002FF9D0F8AC301BB1BDE80840FFF7C0BF9B
:10FB700008BD00002DE9F04790F8B03005468946F1
:10FB8000174600F1200813B1D0F8AC303BB9BAB237
:10FB900049464046FEF78CFBF0B900242EE0404673
:10FBA000FEF776FB0028F8D0BEB232464946D5F8BB
:10FBB000AC0006F0A8FDD5F8AC3004461148B3F807
:10FBC0000CA0FFF781FB01460E48FEF77DFD1FFAF2
:10FBD0008AFA0338824501DA3C460FE02846FFF7EF
:10FBE00087FF0028D9D0A742F6D9321B92B209EB81
:10FBF00004014046FEF75CFB0028EDD12046BDE83D
:10FC0000F08700BF447A0020A0F11000FFF7B2BFD8
:10FC10000A4B10B50360383304460361D0F8AC00DA
:10FC200010B103685B68984704F16000FEF766F95D
:10FC300004F12000FEF762F9204610BDE8A802009A
:10FC400010B50446FFF7E4FF204606F0B1FC20465D
:10FC500010BD0000F8B50446182006F0A7FC0022ED
:10FC60000546012106F0D6FC2846C4F8A050B4F899
:10FC7000A41006F0ECFC2046FFF7E2F80546B8BBFE
:10FC800001211C48FEF7F2FC04F120060746102172
:10FC90003046FEF770FA2A4611213046FEF77CFA0C
:10FCA00039463046FEF76AFA13493046FEF786FABF
:10FCB0003046FEF72BF90546D0B9603420460C21BA
:10FCC000FEF759FA20460D49FEF76BFA1122294634
:10FCD0002046FEF761FA39462046FEF74FFA2046E5
:10FCE0000749FEF76BFA2046BDE8F840FEF70EB96B
:10FCF0002846F8BD447A002048A9020093F9010083
:10FD00004CA90200F0B50346186880F308885868CB
:10FD1000FF2464B2EFF30585002D01D1A64600470C
:10FD20002546064621273FBAF0B4002400250026C8
:10FD30000027F0B4F92040B2004700BFF0BD00BF7B
:10FD4000FFF7E0BF0123037000234370436083602B
:10FD5000C3818381704708B5FFF7F4FF08BD10B574
:10FD60000446217019B90A2005F074F8606010BDCE
:10FD7000037810B5044613B9406805F017FA204619
:10FD8000BDE81040FFF7DEBF002381608281C381A0
:10FD90007047037870B505460C467BB901236B703C
:10FDA0000023A4024FF47A721946B4FBF2F2686899
:10FDB00005F04CF968B94FF0FF340CE00322002144
:10FDC000012005F029F868600028E7D14FF0FF30E6
:10FDD00070BDEC89A4B22B7800266E701BB16868E8
:10FDE00005F0E4F96E60204670BD4078704738B584
:10FDF00085899542044628BF154619B12A46806870
:10FE000007F097F9A3682B44A360A3895B1BA38128
:10FE1000E38915FA83F39BB2E381284638BD406835
:10FE200020B100231A46194605F01EB87047A9DF15
:10FE30007047AADF7047000010B4054B054C01293C
:10FE40000CBF214619465DF8044B08F051B800BFBD
:10FE500069A9020050A9020010B5044605F08CFD06
:10FE60000128204603D1BDE8104007F043B9BDE8A2
:10FE7000104005F0AEBF10B5044605F07DFD012829
:10FE8000204603D1BDE8104007F03CB9BDE8104062
:10FE900005F0ABBF2DE9F0418AB00AAD0E46002156
:10FEA00025F81E1D03230746904630462A46FFF7D5
:10FEB000C0FFBDF80A00FFF7CFFF0446B8B1014606
:10FEC00003232A463046FFF7B4FF68B94246394655
:10FED00003A8FFF7B1FF70220092BDF80A30054871
:10FEE000224603A900F0B2F92046FFF7C4FF0AB08A
:10FEF000BDE8F081447E002010B5074C204600F09C
:10FF00000FF90649204600F031F920460449BDE8C2
:10FF1000104000F02BB900BF447E002082A90200EF
:10FF200096A90200F0B5064685B050200D4617464A
:10FF3000FFF792FF0446E8B13946502207F0F9F87E
:10FF40001820FFF789FF0C4A426000224272032208
:10FF5000027201960295039401AA0346046003CA43
:10FF6000D860106858611846196105B0BDE8F040C6
:10FF700005F09EBF05B0F0BDF9FF010010B58AB0D5
:10FF800014460A46014603A8FFF756FF00230093D4
:10FF90002246502303A9044800F02EF9003018BF70
:10FFA00001200AB010BD00BF447E00207FB54FF68F
:10FFB000FF739A4206460D46144619D01820FFF7E3
:10FFC0004BFF0022026042720322027201960295E8
:10FFD00003940849416001AA034603CAD860106827
:10FFE00058611846196104B0BDE8704005F060BF63
:10FFF00004B070BD95FE010030B514469BB00128D9
:020000022000DC
:100000000CBF528AE28D0D4601460BA8FFF714FF84
:100010002022002112A807F0B2F8202312AA2946B4
:100020001A48FEF757FB02220BA905A800F05AF95F
:1000300005A800F069F918B35022214605A800F080
:1000400037F99DF848309BB994F84910039194F81A
:100050004A10029194F84B10019194F84C100091C1
:1000600094F84D3094F84E20094912A807F040FF4B
:10007000202212A905A800F01BF905A800F049F9F3
:1000800005A800F053F91BB030BD00BF447A002032
:10009000B9A9020070B58EB00E46014607A8FFF759
:1000A000CBFE012207A901A800F01CF901A800F06D
:1000B0002BF908B9002423E001A800F04CF9B0F1B5
:1000C0007004F7D02046FFF7C7FE05460028F1D0A0
:1000D000702101A800F059F92246294601A800F034
:1000E00081F948B1A2B2032329463046FFF79FFEAB
:1000F000B0FA80F4640900E004462846FFF7BBFE2E
:1001000001A800F006F92CB92346224621463046C4
:10011000FFF78DFE01A800F009F920460EB070BD72
:1001200030B504789BB00546ECB90123037003F0A9
:1001300067FF00F025FC6860A8B9072302AA01A99F
:10014000019302F049FE686068B902A800F00BFC58
:100150000128686003D102A800F0F9FB68606C68B0
:10016000B4FA84F4640920461BB030BDF8B50746E4
:1001700008460D4607F01BFF441C05F0FDFB012857
:10018000204602D106F0B6FF01E005F022FE04464B
:10019000284607F00CFF0021421C20466E1C06F08A
:1001A000EEFF30462F2107F0C7FE064648B1421B3E
:1001B0002946204606F0BDFF204600F005FA01362C
:1001C000EFE7284600F000FA786005F0D5FB01283B
:1001D000204602D106F096FF01E005F006FE7868A1
:1001E000B0FA80F04009F8BD024B00225A601A7044
:1001F000704700BF447E0020F0B587B00546164624
:10020000684601221F460C9C00F06CF8684600F01E
:100210007BF808B9002413E05CB93A4631466846D9
:1002200000F0E0F8059B6B600446684600F071F84A
:1002300006E02146684600F0A8F80028EDD1E9E77D
:10024000684600F073F8204607B0F0BDF0B587B0FF
:1002500005460C9C1646684602221F4600F042F8EE
:100260006CB93A463146684600F022F8059B6B604F
:10027000041C684618BF012400F04BF806E0214634
:10028000684600F082F804460028EAD1684600F08B
:100290004DF8204607B0F0BD13B502AB026803F875
:1002A000011D546819460122A04702B010BD7047D5
:1002B00038B504460069154600F05AF90028606117
:1002C0000CBF2846002038BD10B50446084611462C
:1002D00004F1100200F025F96061B0FA80F04009E5
:1002E00010BD000038B54FF47A7500238560054DC8
:1002F00043600446056003614361FFF7E5FF204664
:1003000038BD00BFE8A902000069003018BF012015
:10031000704710B50446006900F010F900236061D1
:10032000B0FA80F02361400910BD0000044B10B505
:100330000360036904460BB1FFF7EBFF204610BDD5
:10034000E8A9020010B50446FFF7F0FF204606F0CA
:100350002FF9204610BD13B502A90023044641F829
:10036000043D006900F025F96061019802B010BDFC
:10037000006900F015B938B50546FFF7ECFF0446F3
:100380002846FFF7F5FF201A38BD38B50C1E054684
:1003900004DAFFF7E0FF0134211800E02146286964
:1003A00000F0F3F86861B0FA80F0400938BD70B52C
:1003B00004460E460569FFF7DBFF811B284600F067
:1003C000E4F86061B0FA80F0400970BD38B50368A8
:1003D000DB6804469847012105462046FFF7E7FF02
:1003E000284638BD13B5044602AB1046002243F838
:1003F000042D0A460146206900F0A9F860610198C1
:1004000002B010BD07B501220DF10701FFF7EAFFA9
:1004100001280CBF9DF807004FF0FF3003B05DF8D6
:1004200004FB000038B5044668B1074B1D6845B1B0
:100430002146286807F08EFD08B9686838BDED6868
:10044000F5E7284638BD38BD4C7E002070B506461D
:1004500005462B4613F8014B84B13A2C01D01D46BA
:10046000F7E7AD1BEDB2681C06F044FE044628B168
:100470002A46314606F05DFE00236355204670BDD6
:1004800038B503461C4613F8012B7AB13A2AF9D144
:100490000134204607F08BFD054606F02BFE2A4668
:1004A000214606F046FE0022425538BDBDE83840E0
:1004B00007F062BD0D2070470D2070470D2070477A
:1004C0000D2070470D2070470D2070470D2070479C
:1004D0000D2070470D2070470D2070470D2070478C
:1004E0000D2070470D2070470D2070470D2070477C
:1004F00008B500F093F8024B002808BF184608BD65
:100500008838002008B5FFF7A1FF10B1FFF78AFF78
:1005100002E000F079F818B9BDE80840FFF7E8BF3D
:1005200008BD70B504460D461646FFF7EBFF324690
:10053000036829462046BDE87040184710B50446B8
:1005400000F07CF843682046BDE8104018472DE9CC
:10055000F04105460E461746984600F06FF884684D
:1005600043463A4631462846A446BDE8F041604736
:1005700070B504460D46164600F060F83246C36872
:1005800029462046BDE87040184770B504460D4620
:1005900000F054F8294603692046BDE8704018472A
:1005A00010B5044600F04AF843692046BDE8104003
:1005B000184770B504460D4600F040F82946836997
:1005C0002046BDE87040184710B50446FFF79AFF73
:1005D000436A2046BDE8104018470000F8B5094BB3
:1005E0001F6806463C461D4634B1F16BE06B07F0D0
:1005F000B1FC28B1246CF7E737642E602046F8BDC3
:100600000B20F8BD507E0020034B186818B1036C16
:10061000002B18BF00207047507E002038B5064BD5
:100620001C68054634B12946E06B07F093FC08B11D
:10063000246CF7E7204638BD507E002008B10068E2
:1006400070470148704700BF8838002010B5044645
:1006500005F092F90128204603D1BDE8104006F0CC
:1006600051BDBDE8104005F0C0BB10B5044605F013
:1006700083F90128204603D1BDE8104006F03ABDB9
:10068000BDE8104005F0A5BB084808B500234FF0B1
:10069000FF321946006804F0D9FC28B9044B054A1A
:1006A00005488C2106F0AEFC08BD00BF547E00203A
:1006B0002CAA020022AA02004CAA0200074808B590
:1006C00000231A461946006804F0CEFB28B9044BF3
:1006D000044A0548952106F095FC08BD547E00208B
:1006E0002CAA0200FDAA02004CAA020010B5044682
:1006F000FFF7CAFF0CB1636833B9074B074A0848D4
:1007000040F2722106F07EFC5C68FFF7D7FF2046BE
:10071000BDE8104001F066BBC6AA02000FAA0200A5
:100720004CAA020010B50446FFF7AEFFA468FFF71D
:10073000C5FF204610BD0000F8B504460D4616461C
:100740001F46FFF7A1FF0CB1606830B9084B094A9A
:1007500009484FF4167106F055FC3B4632462946CF
:1007600001F0E3FF0446FFF7A9FF2046F8BD00BFF4
:10077000C6AA020009AB02004CAA020010B504464A
:10078000FFF782FF204600F0D3FD0446FFF796FFF7
:10079000204610BD38B504460D46FFF775FF2946C3
:1007A000204600F0A9FD0446FFF788FF204638BD2B
:1007B00070B504460D46FFF767FF02F005FB60B118
:1007C0002046FFF75DFE2946064600F06BFD044615
:1007D00026B13046FFF73AFF00E00D24FFF76EFF29
:1007E0000CB100232B60204670BD10B50446FFF706
:1007F0004BFF02F0E9FA28B12046002102F07AFC12
:10080000044600E00D24FFF759FF204610BD38B51F
:1008100004460D46FFF738FF02F0D6FA28B120460D
:10082000294602F011FC044600E00D24FFF746FFC4
:10083000204638BD10B50446FFF726FF02F0C4FA83
:1008400020B1204602F0EFFB044600E00D24FFF744
:1008500035FF204610BD38B504460D46FFF714FF9E
:100860002946606801F006FD0446FFF727FF204691
:1008700038BD38B504460D46FFF706FF2946204629
:1008800000F062FE0446FFF719FF204638BD70B540
:1008900004460D461646FFF7F7FE02F095FA30B112
:1008A00020463246294603F0A1F8044600E00D2414
:1008B000FFF704FF204670BDF8B504460D46164606
:1008C0001F46FFF7E1FE3B4632462946204600F030
:1008D0004AFE0446FFF7F2FE2046F8BD10B5044676
:1008E00038B1FFF7D1FE204600F060FE0446FFF766
:1008F000E5FE204610BD73B505460C461646FFF7CB
:10090000C3FE02F061FA88B12846FFF7B9FD22461E
:100910000146054601A800F0A1FD044668B9019B07
:1009200033607DB12846FFF791FE00E00D24FFF70C
:10093000C5FE4CB10023336006E0002DF2D1FFF775
:10094000BDFEF7E7FFF7BAFE204602B070BD10B556
:100950000446FFF799FE204600F03AFF0446FFF7F1
:10096000ADFE204610BD10B50446FFF78DFE2046B3
:1009700002F066FF0446FFF7A1FE204610BD00000E
:1009800038B500F0F9FB00F0E5FB012004F0ECFACB
:100990002B4B186000284ED02A4D2B4C2868FFF7AF
:1009A00055FEA0680001FFF760FE286008B9052029
:1009B00038BD264D2868FFF749FE236818205843A4
:1009C000FFF753FE28600028F1D0214D2868FFF77B
:1009D0003DFE63680C205843FFF747FE286000285F
:1009E000E5D01C4D2868FFF731FE236924205843C9
:1009F000FFF73BFE28600028D9D0174D2868FFF785
:100A000025FE60694001FFF730FE28600028CED047
:100A1000124D2868FFF71AFEE0680001FFF725FE77
:100A200028600028C3D002F033F9044628B90C48E6
:100A3000FFF7D4FD01E00A2038BD204638BD00BFD5
:100A4000547E0020488100208881002050810020B1
:100A500084810020B88000204C810020808100200B
:100A6000CC3800200268094B9A420DD14268084BED
:100A70009A4209D18268074B9A4205D1C368064859
:100A80001B1A58425841704700207047E2318AB91A
:100A90008C42B07F5382E0AC8EFC85B108B5014634
:100AA000FFF7E0FF20B1C87DA0F1FF035842584195
:100AB00008BD007D431E58425841704738B50C466A
:100AC000054618220021204606F059FB074B08482E
:100AD0000849094A84E80F006B68236101232375E4
:100AE000AB7B6375AB89E37538BD00BF8EFC85B108
:100AF000E2318AB98C42B07F5382E0AC42688068B0
:100B0000101A70472DE9F043164B1E78164B1B68E0
:100B100000221433B24221DA571CA3F1140C1D46F3
:100B20003C46B44217DAAE4633F8088CBEF80C9057
:100B3000C14505F114050CD1DCF80850DEF8083089
:100B40009D4235BF048002800A800C800020BDE8F1
:100B5000F0830134E5E714333A46DBE70620BDE8CD
:100B6000F08300BF448100205481002008B5044870
:100B700003F0FAF918B1002303604360836008BDF5
:100B80005881002010B50446406801F03DF928B9AD
:100B9000054B064A06482B2106F034FA2146054843
:100BA000BDE8104003F0F8B930AB02001AAB020008
:100BB0005BAB02005881002013B50446FFF7D6FF57
:100BC00001A9206001F08AFF0028F7D1019802B046
:100BD00010BD10B51423144600F0FAFC30B920689B
:100BE00001F012F900280CBF0920002010BDF7B554
:100BF0000446008A14300F4615460DF1030101AA80
:100C000080B21E4601F08AFFC8B91423224601991A
:100C10009DF8030000F008FD88B9238A33B99DF8D8
:100C200003302B70019B3360002008E001999DF890
:100C300003003A46143100F0F7FC0028EFD003B06F
:100C4000F0BD000008B583682BB90B4B0B4A0C486C
:100C5000D82106F0D7F902685B6852680A604268DA
:100C60004B60C3688A8113B94FF0FF3300E05B68C3
:100C70008B60038A0B8208BDDBAB020037AC02003D
:100C80005BAB020030B5044689B048680D4601F000
:100C9000BBF830B9124B134A13484FF4AB7106F04E
:100CA000B1F9284601F0F8F810B12560062015E0EA
:100CB00002AA0DF10701A86800F020FD03AA02991D
:100CC0009DF80700FFF785FF40B9BDF81C30BDF85F
:100CD000182025606260A060E060238209B030BD0A
:100CE00030AB0200F9AB02005BAB020073B51D46EE
:100CF00003680C4616460DF1030101AA986800F03E
:100D0000FDFC01999DF803001431214433462A4625
:100D1000019100F05DFC02B070BD10B50021846847
:100D2000FF2000F0D7FC231A5842584110BD0000A4
:100D300030B5054689B048680C4601F065F830B911
:100D40001D4B1E4A1E484FF4C67106F05BF9204643
:100D5000FFF7E3FF20B100202C60A860E86028E0E6
:100D600002AA0DF10701A06800F0C8FC03AA0299CD
:100D70009DF80700FFF72DFFD8B9BDF81C30BDF86E
:100D800018202C60A860E8602B826A60049801F04B
:100D900055F8B0FA80F4A8600598431C4FEA541443
:100DA00001D1204605E001F05FF8E8600028F8D1A5
:100DB000012009B030BD00BF30AB02001CAC020006
:100DC0005BAB020030B587B0054601F065F838B17D
:100DD000284601F0B5F82846FFF7D4FE012014E0BC
:100DE000294601A8FFF7A4FF012804460CD8039B5D
:100DF00023B11A69954204BF049A1A61284601F08A
:100E00009FF82846FFF7BEFE204607B030BD000021
:100E100010B50446A16959B10B684A680BB15A6014
:100E200000E0E2614A680348136003F0B5F8F1E7B7
:100E300010BD00BF0081002010B5044638B1FFF797
:100E4000E7FF21460248BDE8104003F0A5B810BDF9
:100E50009480002010B5084803F086F8044640B19D
:100E60002422002106F08BF92346002243F8182F94
:100E7000E361204610BD00BF9480002010B50548F6
:100E800003F072F8044618B12022002106F077F929
:100E9000204610BD0081002008B5FFF7EFFFB8B96C
:100EA0000C4B5B685B68186860B1836943B1FFF7FE
:100EB000AFFFFFF7E3FF58B9074B084A3F2104E0B3
:100EC0004368EFE7064B074AE621074806F09AF821
:100ED00008BD00BF10390020F3AC02005AAC02007C
:100EE00085B402001BAD020073AC020083690BB92C
:100EF0000B6007E0DB690B60C3695B6819680B8BEB
:100F0000C9690B4413607047094A13682BB199688B
:100F10008842196802D00B46F8E77047586809B153
:100F2000486000E050605A6818461160FFF784BFBF
:100F300010390020F8B5284D2C6807460E4624B11C
:100F4000A3689E4243D02468F9E7FFF783FF044675
:100F5000E0B96B685B68186818B9204B204A80219B
:100F600011E0036842680BB15A6001E01A494A6017
:100F700042681360FFF760FFFFF76CFF044628B973
:100F8000164B174A8821174806F03CF82422002106
:100F9000204606F0F4F8314604F1080001F078FB31
:100FA000064670B904F12001A06801F039F906463F
:100FB00038B92B68236003B9074B5C602C6065600F
:100FC00005E02046FFF738FF00233B6001E03C606E
:100FD00000263046F8BD00BF10390020EBAB020000
:100FE00035AD020073AC0200074B10B51C682046FB
:100FF0004CB1FFF70DFFA16804F1080001F048FBB8
:1010000008B92468F3E710BD1039002032B100237D
:101010000B60C3694B601960C161704783690B60E5
:101020000BB1596000E0C16140F8181F486070477B
:101030002DE9F043036A89B0064689461746002B1E
:101040007BD002AA01A9FFF751FF029D7DB1019B50
:101050004B4504D98369D3F81480DD690BE04D4515
:1010600005D9C3695B681C68D4F8088004E0B368DC
:10107000356AD3F810800024019B9D4219D834B101
:10108000314B324A324840F2A91105F0BBFFFFF75D
:1010900003FF414604460830FFF74AFE00284FD1BF
:1010A000238BED1A0246E56121463046FFF7AEFF7D
:1010B00000E01CB1E569D4F814800AE0414603A8B9
:1010C000FFF736FE00283BD1BDF81C30DDF8188054
:1010D000ED1A4D452BD834BBFFF7DEFE0DF10C0C9D
:1010E000044600F1080EBCE80F00AEE80F00DCF883
:1010F0000030CEF80030B369E56163B1F3695A6836
:10110000126892683AB1904505D1002284E80C003B
:101110001C60F46107E03046FFF77AFE00222146AA
:101120003046FFF773FF57B13C60002008E0002C09
:10113000A2D063685B681C689EE7062000E0384622
:1011400009B0BDE8F08300BF07AD02004AAC020061
:1011500073AC020010B5074C206850B103684268B8
:101160000BB15A6000E0626042681360FFF764FEF2
:10117000F2E710BD103900200F4B1A680AB964223B
:101180001A605A6812B90C4A642151609A6812B9FF
:10119000094A042191601A6912B9074A04211161B0
:1011A0005A6912B9044A40215161DB6813B9024BF4
:1011B0000422DA60704700BF888100202DE9F041E9
:1011C0000646884617461C46ACB1B4F5807F2546D6
:1011D00028BF4FF480752B46094A3946404600F037
:1011E000F7F958B930462A46054902F00BFF2F445B
:1011F0000646641BE8E7069B20461E80BDE8F0819A
:10120000A081002001461222002002F0FBBEF0B5B2
:1012100085B005460E461746FFF7F4FF04AC2B8A4F
:1012200024F8020D07F1140200943146FFF7C6FFBF
:1012300028B9BDF80E006B8A181A18BF012005B036
:10124000F0BD38B504460D46FFF7DCFF228A29467B
:1012500002F0D8FE608238BDF0B585B005460E4676
:101260001746FFF7CFFF04AC6B7C24F8020D07F1A3
:10127000140200943146FFF7A1FF28B9BDF80E0013
:101280006B8A181A18BF012005B0F0BD38B50446A6
:101290000D46FFF7B7FF627C294602F0B3FE60827D
:1012A00038BD000073B50E4601A901F0B1FE044639
:1012B000B0B9019B586800F095FD98B10C4802F058
:1012C00053FE054680B11022214605F058FF0198D3
:1012D000686000F0E3FF074BAC60EC602B603560AA
:1012E000204602E0042000E0052002B070BD00BFEF
:1012F000BC800020CC38002070B50446C0680E4683
:1013000010B963681D6903E0C56800F0DBFF60B9D0
:10131000E56015B93560062070BD284600F0BEFFB7
:10132000024B44F8083F0020346070BDCC380020E8
:1013300010B5044608B9002010BDC06820B9606827
:1013400000F0C0FF60B904E000F0BCFF0028F6D058
:1013500010BD2146034802F01FFE0028EBD00A20F2
:1013600010BD00BFBC8000202DE9F04188B00546CB
:1013700001A80E461746984600F00AFF04460028CA
:101380005AD102AA0DF1030107F1140001F0C6FBC6
:101390000446002850D11422FF2103A805F0EFFED7
:1013A000B8F1000F01D0284A00E0284A1368591C00
:1013B000116003934FF0FF320023ADF8183005920F
:1013C00005B16A680492314603A88DF81C308DF887
:1013D0001D70FFF75BFF029B9DF80320314603A8B9
:1013E00000F0F2FE044638BB019E039B7360029935
:1013F0009DF8030000F06EF9B060019801230375B9
:10140000046135B10146284601F0AAF9044698B9AD
:101410000AE0039B2BB10E4B0E4A0F487E2105F0CC
:10142000F1FD202101F000FB019800F04DFD0E9B25
:10143000019A1A60002003E0019800F025FE204682
:1014400008B0BDE8F08100BFA4820020B082002077
:101450004EAD0200F3AD020074AD02002DE9F04183
:10146000804690078AB00F46164663D012F00C03F0
:1014700003D091075ED50C2B5CD0314802F074FD8F
:101480000546002858D01022002105F078FE394684
:1014900005A801F078FD03AA04A905A801F078FDCC
:1014A000062804460ED1059B022B3DD1B2073BD541
:1014B0000398002838D02B1D00939DF82020079911
:1014C000002311E080BB049B586800F08BFC50BBEC
:1014D00033070ED5384601F0A6FD2B1D9DF82020C0
:1014E0000799039800932346FFF73EFF0446D8B9B7
:1014F00001E0049B6B6006F0040303F0FF023BB1C4
:1015000005F10801686800F0B5FE044660B900E026
:10151000AA60686800F0C2FE0A4B2E732B600020A0
:10152000C8F8005009E004242946054802F034FDBB
:10153000204602E0042000E005200AB0BDE8F0816A
:10154000E0800020CC38002037B504460D464068C6
:1015500001A900F08FFE20B9019BAB422CBFA56012
:10156000032003B030BDF0B585B005460E461746E2
:101570001C4601F029FC90B12B7BDB0711D503AB96
:10158000009332463B46A968686800F0FDFF58B9F1
:10159000AB68039A1344AB602CB1226004E00D20C9
:1015A00002E00C2000E0204605B0F0BD10B5044676
:1015B000406800F087FE38B92146044802F0ECFC90
:1015C00000280CBF00200A2010BD00BFE0800020D2
:1015D000F8B5104D2D7885421C4605D80E4B0F4AA4
:1015E0000F48312105F00EFD0E4D00EB80002E68F6
:1015F000800035180C446F68BC4209D8305801444B
:10160000E87B02F0DDFB002814BF02200020F8BDBB
:101610000320F8BD4481002010AE0200C4AE0200D9
:101620002AAE020054810020F8B5124C247884427E
:101630001D4605D8104B114A1148582105F0E2FC0F
:10164000104C00EB80002668800034180D44676859
:10165000BD420AD8A768B94207D330580144E07B9D
:1016600002F0CEFB18B9A560F8BD0320F8BD02203A
:10167000F8BD00BF4481002010AE0200D4AE0200CD
:101680002AAE0200548100202DE9F843089C8046D0
:101690000E4691461F46BCB1B4F5807F254628BF53
:1016A0004FF480752B460A4A31464046FFF790FFBB
:1016B00058B92B46064A39464846FFF7B5FF20B9C8
:1016C0002E442F44641BE6E72046BDE8F88300BFA4
:1016D000A0810020B1F1807F08B505D3044B054AF5
:1016E0000548A62105F08EFC41EA006008BD00BF58
:1016F000AAAE020001AE02002AAE0200030E20F0E4
:101700007F400B70106070472DE9F041134F00EBE4
:1017100080043B68A4001D1986B0064688466A68A6
:101720001959E87B02F08CFBA0B9A86069462846ED
:10173000FFF7C4F9B8F1000F05D03B681C44FF2344
:10174000A381172300E018236A4600213046FFF7E3
:101750006BFF00E0022006B0BDE8F081548100205C
:1017600030B5164B1B78834287B004460D4605D82A
:10177000134B144A1448252105F044FC18236A46EB
:101780000021FFF725FFB8B9104A126804EB840363
:1017900002EB830368469D81FFF780F9014618B983
:1017A0002046FFF7B1FF07E006AA012302F8015D1A
:1017B00017212046FFF738FF07B030BD44810020D5
:1017C00010AE020066AF0200E5AE020054810020B8
:1017D0002DE9F74F3B4E074601F05AFA00233370CC
:1017E0001A4601200C2505FB00714C686CB1B0F560
:1017F000807F5ED002EB420107EB810149688C4299
:1018000084BFC2B201230130EDE703B13270C0B230
:1018100001F0D2F9044600284ED1DFF8B890DFF885
:10182000B8A0B84605464FF0140B99F800309D4219
:1018300023DADAF80000D8F800200BFB05F1431892
:101840004250D8F8042031785A6098F80820DA73AA
:101850008D424FF000029A609A7306BFFF229A8170
:101860009D816B1A59425941E8B2FFF74DFF08F1CB
:101870000C08044600BB0135D7E701F00BF904461C
:10188000D0B9114B0093024601231049FFF76CFDBC
:10189000044688B901F0E8F9044668B901F0E2F8B5
:1018A000044648B901F0ACF9044628B9084B1F605A
:1018B00004E003B13270042401F0EAF9204603B0D9
:1018C000BDE8F08FB48000207C81002033C002008E
:1018D000208100204481002054810020F0B585B093
:1018E0000D4614460DF10B0103AA06460068FFF7EA
:1018F00005FF0C4B9DF80B001B68039904EB840259
:1019000003EB820322469F6800953B46FFF7BCFE2F
:10191000054620B939462046FFF7DCFE30602846F0
:1019200005B0F0BD54810020F0B5044687B00E46E6
:1019300017460025B5421AD22CB90E4B0E4A0F4855
:10194000842105F05FFB214601A8FFF7F1F978B982
:10195000BDF8141014313A4689B204F10800FFF7BB
:10196000BDFF28B9BDF81430049C1D44E2E70020F7
:1019700007B0F0BDEBAB0200ECB00200A8AF020074
:101980002DE9F04F95B0814615461E46DDF878B03A
:1019900011B91A462946B3E0142200210AA805F01D
:1019A000EEFB03F0E9FF0128284602D105F0A2FB77
:1019B00001E004F00EFA0746002800F08F801422A0
:1019C00000210AA805F0DBFB514B1B680193A846D8
:1019D0004C46B8F1000F3AD021460FA8FFF7A8F9FE
:1019E000824600287CD1BDF84C30C3EB08080F9B21
:1019F00004AA98680DF10F01FFF780FE0499BDF865
:101A00004C309DF80F00143107EB08020491FFF7EA
:101A1000DFFD8246002863D1A1450DD0BBF1000F48
:101A200006D0DBF800309C4204BF2368CBF80030BE
:101A30002046FFF7C7F908E00DF13C0EBEE80F00A5
:101A40000AAC0FC4DEF800302360129CC1E7DDF859
:101A500028B0BBF1000F05D12E4B2F4A2F48E821AB
:101A600005F0D0FA142241460DEB020005F087FB89
:101A7000DBF8043005930B9B0133ADF820300C9B51
:101A80005B68069314B94FF0FF3300E06368079377
:101A9000394605A8ADF82450FFF7D3FB019A06EBB1
:101AA000860302EB830A1423DAF808400DEB0302E5
:101AB00021463046FFF7B8FD824688B92B463A46A4
:101AC00004F114013046FFF7AFFD824640B92146CC
:101AD0003046FFF7FFFDC9F8080001E04FF0050AA6
:101AE00003F04AFF0128384602D105F00BFB01E064
:101AF00004F07BF9BAF1050F05D132462946484674
:101B0000FFF712FF8246504615B0BDE8F08F00BFC8
:101B10005481002025B002008CAF0200A8AF020063
:101B20002DE9F04F814B82491E78824B0F781B685C
:101B300091B01A4602930590012300248B46B342CC
:101B400016DA9F4211D00299906904EB840501EBEB
:101B500085056968884207D8A74205D092F8221007
:101B6000A87B091A090600D5DCB201331432E6E776
:101B7000A74203D1704B714A712148E0029B04EBEC
:101B8000840903EB8909384699F80C10FFF7E8FD42
:101B9000002840F0C7800390694B039A1B689D584A
:101BA00011E00026D5F81080B2463546B8F1000F96
:101BB0007ED041460BA8FFF7BBF800283CD0002898
:101BC00040F0B080089D002D7DD02B686868089398
:101BD00000F016F90028F5D009AA0DF11E01A86839
:101BE000FFF78CFD9DF81E30A34213D0686800F00B
:101BF000FFF80028E6D09BF800306868049300F0F6
:101C0000F7F80028CDD14F4B4F4A4FF4A9714F48F8
:101C100005F0F8F929460BA89BF8008000F038FD84
:101C200038B99DF838104246143105F10800FFF725
:101C300055FE0028DAD075E00AAA0DF11F01D8F888
:101C40000800FFF75BFD9DF81F30A3421CD1404AFE
:101C5000BDF83C3012885344002D08BF45469342DE
:101C600003D8A84518BF01261EE008AB00935246D2
:101C7000049B31462846FFF783FE00289FD1BDF81C
:101C80003C30454606460FE06DB108AB0093524626
:101C9000049B31462846FFF773FE00288FD1064685
:101CA0000346054600E05346DDF838809A467DE756
:101CB000002D87D008AB00935246049B314628463E
:101CC000FFF75EFE7BE7039B0433B3F5806F03935E
:101CD0007FF462AF029B07EB870703EB8707D9F816
:101CE0000830BA689A4204D91A4B1B4A40F2FD11D7
:101CF0008DE799F80E30013389F80E300121204626
:101D0000FFF702FD70B9059B1BB1059A9BF80030E7
:101D100013708BF80040FFF767F918B90F4A136882
:101D20000133136011B0BDE8F08F00BF4481002083
:101D3000B4800020548100203EB00200C3B00200F5
:101D4000AC82002065B00200D7B00200A8AF02004C
:101D5000788100209EB0020084AF0200A0820020A3
:101D60002DE9F843104FDFF8449080460E460025D9
:101D70003B789D4211DA3046FFF7D2FE044678B92F
:101D80003078D9F8003000EB800003EB8000FEF7DC
:101D9000B5FE404504D20135EAE70820BDE8F883E6
:101DA0002046BDE8F88300BF448100205481002014
